S018000061726475696E6F5F74656D706C6174652E737265635F
S1130000008000207D1D0000651D0000651D0000AE
S113001000000000000000000000000000000000DC
S1130020000000000000000000000000651D00004A
S11300300000000000000000651D0000D11D00004C
S1130040651D0000651D0000651D0000651D0000A4
S1130050651D0000651D0000651D0000691D000090
S1130060651D0000A93A0000651D0000651D000023
S1130070651D0000651D0000B93A0000651D000003
S1130080651D0000651D0000651D0000651D000064
S113009000000000651D0000651D0000651D0000D6
S11300A0651D0000651D0000651D0000651D000044
S11300B00000000010B5064C2378002B07D1054B37
S11300C0002B02D0044800E000BF0123237010BDC0
S11300D08002002000000000A08E0000084B10B534
S11300E0002B03D00749084800E000BF0748036815
S11300F0002B00D110BD064B002BFBD09847F9E72D
S11301000000000084020020A08E00007C02002079
S1130110000000000E4910B50B004A7ED209FCD144
S11301201F240C4A105C0A692040A24302430A615E
S11301305A7ED209FCD1197E01320A431A765A7EBC
S1130140D209FCD1197B02320A431A7310BDC0468E
S1130150004000420C8000000022214B10B51A80A0
S11301605A809A80DA801A815A811A731D4A1300C0
S1130170517EC909FCD111691B480840C0214901BD
S1130180014311615A7ED209FCD11A6917490A4008
S11301901A615A7ED209FCD10F215A788A435A70C7
S11301A05A7ED209FCD19A705A7ED209FCD1DA70F7
S11301B00F4A10005178C909FCD10E495180427888
S11301C0D209FCD15A7ED209FCD19A80587EC0094A
S11301D0FCD1022219780A431A70FFF79BFF10BD65
S11301E09C02002000400042FFE0FFFFFFFFFFF001
S11301F0000C00401E430000002170B588420BD063
S1130200064D280000F056F9054C01212070280005
S113021000F050F901216070080070BD7E060020D6
S1130220400C00207047000070B51A4D24212800AE
S113023000F03EFC1321184800F0E4F8FA24FA21F7
S1130240E4004900154800F0DDF82100144800F0EE
S1130250D9F821008024134800F0D4F8124800F0A3
S1130260F8F8E400114800F0F9F8290022001048D9
S113027000F023FD22000F490F4801F085F80F4CD0
S11302800F49200003F0FCFB0E4A0F49200003F045
S113029061FD70BDAC020020C00200205C0500209E
S11302A07405002088050020A805002070050020A2
S11302B0D402002000130020A00300209C0500208D
S11302C07386000000000020F1390000002370B59F
S11302D02C482D4C010059435A005242013B115302
S11302E01A003232F6D100221300284D911C962BAD
S11302F004D0AB5203339BB20A00F7E7244E6423C5
S113030030002A00002100F00FFD22003000642399
S1130310012100F009FD1F4E64232A000021300052
S113032001F078F8642322000121300001F072F812
S113033008220021184805F01FFD00210222174859
S113034005F01AFDFFF708FF9621154C89012000DE
S113035002F024F80F21134800F0B8FB00280BD05A
S1130360642001F049FD1049200001F0AFFD0F4960
S1130370200001F0ABFDEDE70D49200001F0A6FDE2
S113038070BDC0460CFEFFFF1A060020B605002013
S1130390D4020020A0030020AB050020B3050020F8
S11303A000130020AC020020128000002B8000000B
S11303B04680000010B50F4C200002F0F9F8002828
S11303C006D0200002F0C0F9C1B20B4801F01AFBBC
S11303D000230A48991CCA2905D0C3181A88013277
S11303E01A800B00F6E7064800F071FF024801F09E
S11303F02FFA10BD00130020A00300201A060020CD
S1130400D40200200023037181600361037303603D
S1130410704710B503790400002B04D10361036015
S11304202373207B10BD0368002B02D101F0DEFC96
S1130430206001F0DBFC2368C01AA36820619842A5
S1130440EFD323610123EBE710B50171FFF7E1FF5F
S113045010BD002303704370837070470023037042
S1130460437083707047000070B50F4C0F4EA54465
S113047004000F4801AA43690169651C00F054F89F
S1130480320001A9280005F05CFCA35D002B05D116
S11304908022FF21D200280005F06EFC0123237086
S11304A08123DB009D4470BDF8FBFFFF01040000C5
S11304B0840A0020037870B504000D00002B01D1DC
S11304C0FFF7D2FF6419607870BD000010B5054ACB
S11304D00549064800F010F80022054B05491A703A
S11304E05A5410BD0104000000810000840A002059
S11304F07E0600200204000030B5094D094CAB68AB
S11305005B035B0F9B001C590460AB6801619BB2E9
S113051043606343A4008360C460426130BDC0464D
S1130520004000410086000010B510001A0005F0DC
S113053008FC10BD73B500256B4606000D4C5D71BB
S11305401D71019A20000C4901F0D6FAF07C2900B3
S113055003F0C4F9C021200001F0FEFAF07C01216F
S113056003F0BCF9200001F0E3FA0A2001F044FC96
S113057073BDC0469C0A002040420F00F7B5002519
S11305806B4606000F00114C5D711D71019A20002D
S11305900F4901F0B1FAF07C290003F09FF903211F
S11305A0200001F0D9FA3900200001F0D5FA290021
S11305B0200001F0D1FA05000121F07C03F08EF94E
S11305C0200001F0B5FA2800FEBDC0469C0A0020B8
S11305D040420F00F0B5002406000F0085B0164D10
S11305E0019302AB5C711C7100921449039A2800B8
S11305F001F082FAF07C210003F070F90321280055
S113060001F0AAFA3900280001F0A6FA019BA342DE
S113061009DD082C07D00021280001F09DFA009B79
S113062018550134F2E7F07C012103F057F9280052
S113063001F07EFA05B0F0BD9C0A002040420F0094
S1130640F0B5002506000F0085B002AB104C5D71BB
S11306501D7101922000039A0E4901F04DFAF07CBD
S1130660290003F03BF90221200001F075FA39005A
S1130670200001F071FA0199200001F06DFAF07C7C
S1130680012103F02BF9200001F052FA05B0F0BD6E
S11306909C0A002040420F00F0B5002406000F0021
S11306A085B0154D019302AB5C711C710092134926
S11306B0039A280001F020FAF07C210003F00EF9DF
S11306C00221280001F048FA3900280001F044FA18
S11306D0019B9C4207DA009B2800195D013401F05C
S11306E03BFAE4B2F4E7F07C012103F0F7F82800C8
S11306F001F01EFA05B0F0BD9C0A002040420F0034
S1130700F0B5002506000F0085B0144C019302AB30
S11307105D711D7100922000039A114901F0ECF9FA
S1130720F07C290003F0DAF80521200001F014FA26
S11307303900200001F010FA0099200001F00CFAB1
S11307400199200001F008FAF07C012103F0C6F8B9
S1130750200001F0EDF905B0F0BDC0469C0A002070
S113076040420F0073B500256B4606000E4C5D71C8
S11307701D71019A20000D4901F0BEF9F07C290099
S113078003F0ACF8A021200001F0E6F929002000D4
S113079001F0E2F905000121F07C03F09FF820004C
S11307A001F0C6F9280076BD9C0A002040420F00E3
S11307B070B505000B000C00E0220F21FFF7A0FF2D
S11307C028000F21FFF7DAFEE0231840001B431E28
S11307D09841C0B270BD013970B5060001201129DD
S11307E01DD8080003F0BEFA5009541C2023272BFF
S11307F02E3235383B3E42464A4D8724FF251F2280
S11308002A213000FFF71CFF2A0029213000FFF7BE
S113081017FF300022002821FFF712FF002070BDCF
S11308200724BA250F22EBE78524F125FAE70724EC
S1130830BE250922E4E78724FF250722E0E7872471
S1130840FA25FAE78724FF250322D9E70724BE25E2
S1130850FAE70724AD25F7E78724FA25F4E7862489
S1130860F025F1E78724FA250122C9E78524F1253B
S11308704122C5E78624F0250022C1E70424A025EF
S1130880FAE78224D025F7E78724FF253F22B7E73C
S11308908724FF25C6E7F8B5050030242600270085
S11308A020361037F6B2FFB200223E2C10D02100C1
S11308B02800FFF7C5FE002239002800FFF7C0FE1C
S11308C00134002231002800FFF7BAFEE4B2E5E764
S11308D028006021FFF7B4FE280000227021FFF7F2
S11308E0AFFEF8BD70B504000E00FFF723FE8021B3
S11308F02000FFF75DFF05000A20002D03D001F062
S11309007BFA280070BD01F077FA31002000FFF770
S113091062FF002801D00A20F1E70A2001F06CFAF6
S11309202000FFF7B8FF200003222B21FFF788FEE9
S11309302000042364226021FFF7E2FE20002B0044
S113094060227021FFF7DCFE20002900FFF730FF52
S1130950041EE0D00A2001F04FFA2500D1E773B558
S113096001AC012A13D11F2503261A12E3701B0CB4
S1130970A270DA00AA431E40173D35432A435B1197
S11309806270237004232200FFF786FE73BD1A04ED
S11309905B0163700023D20C2270E370A370F1E753
S11309A073B51C00002301AE1370150023603200E0
S11309B00433FFF70FFE717832784B11D200D3184D
S11309C023600A070CD503229B0011405B18B27800
S11309D01B029B18F2781B029B18236001232B70C7
S11309E073BD020070B504000D000531037A0932AD
S11309F0C9B2FFF751FE637C012B03D1227A3F3346
S1130A0013432372291D227A2000C9B2FFF718FE6E
S1130A102900227863682000FFF7A1FF70BD70B53C
S1130A200D000400031D0200FFF7BAFF691EC9B2DE
S1130A302000FFF7A3FD291D0600C9B22000FFF71F
S1130A409DFD08232072334000D0012363740F23DB
S1130A50220003400535E9B2237209322000FFF772
S1130A60B9FD70BD082310B50139C9B21A00FFF7EA
S1130A7047FE10BD3023F0B500240E0085B003AD51
S1130A802B7010336B7010330190AB700C702F5DB2
S1130A9001983900FFF772FD08230134184003D18F
S1130AA07B1C337005B0F0BD032CF0D10220F9E7B4
S1130AB010B504000800E174012102F0C3FEE07CDB
S1130AC0012102F00BFF200010BD000070B50D00E5
S1130AD00400054800F0E8FF29002000FFF702FFAA
S1130AE0431E9841C0B270BD9C0A002030B503ACCF
S1130AF00270257841601A1C082B00D908220023B3
S1130B00D4B202724574A34205DA049AD15CC218C5
S1130B1051720133F7E7002030BD13B5049C0194F2
S1130B2000240094FFF7E2FF16BDF7B5050000248A
S1130B306B46DE1D31002800FFF79CFF0134A4B290
S1130B4002281AD00620322C1AD031782800FFF758
S1130B5048FF31782800FFF785FF00240827317803
S1130B6028000139C9B2FFF709FD0134A4B23840A5
S1130B7007D1322C04D1072002E0322CD8D1062030
S1130B80FEBD322CEBD1F6E713B5040004980090B7
S1130B902000FFF7C2FF2000FFF7C7FF16BD70B5A6
S1130BA00400FFF7DFFD0126050035400CD061216C
S1130BB02000FFF734FF002332002C212000FFF730
S1130BC09FFD0023180070BD022604233042F9D093
S1130BD071212000FFF723FF2B0032002C2120007D
S1130BE0FFF78EFD2B00EDE770B504000E00150035
S1130BF0FFF7D5FF00280AD1237A33700300227A45
S1130C00934206DAE218527AEA540133F7E70023F2
S1130C10337070BD10B5FFF7A5FD032318404342A0
S1130C205841033010BD40687047F8B500240F00E8
S1130C30069EA24207D0013AD2B2A2420ED0A1B27D
S1130C40B94202D300242000F8BD055D9D4228D19D
S1130C50013AD2B2002A24D101318AB2089900297A
S1130C6000D00A80811808001400BC4204D201306C
S1130C70451E2D789D4216D10025944216D1099B1C
S1130C80002B00D01A80079B002B00D01D8001246C
S1130C90002ED8D02A00300005F053F800237355F5
S1130CA0D1E70134CBE70134A4B2DEE7013CA4B2BE
S1130CB0A21A013295B22200E1E7030070B50025C3
S1130CC001609833911C1A605960D11C0432DA60B7
S1130CD01D84996008335D771C331D70023B1D70C1
S1130CE05D700A331D805D7104331D70023B040086
S1130CF01D705D70142001F0BBF814210600FFF78D
S1130D0081FB2300AC331E60142001F0B1F83221C2
S1130D100600FFF777FB2300B0331E60083B1D700D
S1130D205D709D70200070BD70B55C080500030007
S1130D30002912D1013CB433A4B21A609C8014314E
S1130D40200003F09FF82B00BD33197020001421FC
S1130D5003F012F8BC35287070BD013CC033A4B256
S1130D601A609C801421200003F08CF82B00C933F6
S1130D7019702000142102F0FFFFC835EBE70000D2
S1130D80012030B5094C8A18404291420CD00B78AE
S1130D901B06584008234500C0172040013B68400B
S1130DA0002BF8D10131F0E730BDC046B71DC104B6
S1130DB0F0B5081E32D00024100023000126184D7F
S1130DC0002812D00A78DF1322415B00324013431B
S1130DD001349BB2072C03DD00240138013180B2B9
S1130DE0002FEDD06B409BB2EAE710220C49DC13D4
S1130DF05B009BB2002C01D04B409BB2013A002A0D
S1130E00F5D180240121103224021C4201D0084370
S1130E1080B2013A64104900002AF6D1F0BDC04600
S1130E200580FFFF73B5C37A867A1B02051DF61889
S1130E3006222900B6B20400FFF7BAFF86422ED17B
S1130E4004222A49280005F004FD061E28D108358D
S1130E5001000822280004F08FFF2300BC331B7814
S1130E60062223732300BD331B78290063732300F8
S1130E70C8331B782000A3732300C9331B78E373A2
S1130E80FFF796FF2300A0740012E07498331968EA
S1130E9000950131082332002068FFF775FE73BD09
S1130EA004221349280005F0D4FC002806D12200AE
S1130EB00123A8321370A9342370F0E704220D49EA
S1130EC0280005F0C6FC002802D1AA340123F3E768
S1130ED004220949280005F0BCFC0028DFD12300C6
S1130EE0AA34A833187058702070D8E72086000000
S1130EF0258600002A8600002F860000F0B5040035
S1130F00050026000C3589B0082200212800BE36D1
S1130F1004F032FF3378002B3DD02300BF3319781F
S1130F20033B21731878083B884224D0D42262738F
S1130F30AC3A51431B6859182000FFF721FF030AFC
S1130F40A073E373030C000E23746074062229005B
S1130F502000FFF72DFF2100A0740012E07400951B
S1130F609C310823002209682068FFF70DFE002346
S1130F70337009B0F0BD22000021A932117014327F
S1130F80127811003F3961732821484319680132EE
S1130F9052000918D0E722001420BA321178013225
S1130FA04843217316782700801905900E20844643
S1130FB02000B437B8306673A444069707900598A8
S1130FC0DEB2C01880B203900496032B1FD04600F3
S1130FD0069800688619308807006046077076789E
S1130FE076B24670079806880398B04219DB23004E
S1130FF00120BE3318705970002313702200BA32D6
S11310001370049B012B22D1637B40336373210053
S113101000959C310823002209682068FFF7B4FD7D
S1131020A7E70226107801339BB2B44412280BDDE3
S113103023000120BE33187059700023137023005D
S11310400918BA331970DCE701301070B7E7049B54
S1131050002BDCD1637B803BD8E7F0B504000300B0
S113106025000C3387B0180008220021CA350293EA
S113107004F082FE2B78002B36D0230022002100BE
S1131080CB331B78C8322373127844319A4222D06E
S1131090D423282263732000FFF772FE030AA0738F
S11310A0E373030C000E029923746074062220007B
S11310B0FFF77EFE2100029BA0740012E0740093EF
S11310C0A0310823002209682068FFF75DFD002392
S11310D02B7007B0F0BD2300C9331A781300013216
S11310E03F3B63735200D6E723002500C7331978CA
S11310F0C63500292DD1013328781B78834211D0BD
S113110028222700944623004243A444121BC037DC
S11311109C451ED038688018C65E1800443006808E
S11311200233F5E722001420C9321278270058430D
S113113094460B00C0379C450BDB1A183E685200DE
S1131140965F1A0020325200A21801339680DBB257
S1131150F1E714222B7861735A43521821002600B8
S1131160250004920022C43123730E36C73505913D
S11311700499891889B28C46D1B20391032A1CD0F0
S1131180297808002030400020180427C05F307000
S11311900012707005980088844519DB2200CA3259
S11311A053700121002311702B70043A1370039BB8
S11311B0012B20D1637B403363732100029BA03158
S11311C000930022082309682068FFF7DDFC80E70C
S11311D0013292B2023612290ADD22000121CA32FA
S11311E05370117000222A7022005B18C632DDE7AA
S11311F001312970BCE7039B002BDED1637B803B6C
S1131200DAE7F8B5437904009430C02B2ADDC03BFB
S11312101D0003889D4224D1E37AA67A1B02F618A6
S1131220211D06222000B6B2FFF7C2FD864218D166
S113123021006A001C312000FFF7A2FD002810D015
S11312401423227953432200B43212685B00D3186A
S11312500022510060181C26805F013258529542CA
S1131260F7DCF8BD2579E279A679802B0BDD19002E
S11312707439490012026118B61896348E807F3B87
S113128025700380EDE759006118402B0EDD0F0037
S11312901202B618643F3E80667A227A36026239B8
S11312A0921996340A803E3B2570EAE71202B6187A
S11312B08E83667A227A36029219CA83E67AA27AF1
S11312C03602921996340A8403332570D9E770B52F
S11312D004000068FFF79EFC03281AD12100221D98
S11312E014312068FFF780FC2068FFF79CFC230082
S11312F098331B68A061984202D12000FFF792FD49
S11313002300A4331B68A2699A4202D12000FFF78C
S113131078FF2300A8331B78002B26D02100A931A5
S11313200A78002A22D02500AC3501212868FFF76D
S11313308BF82B681B7B002B06D02000FFF7DEFD0B
S113134000212868FFF780F82500B03501212868BE
S1131350FFF77AF82B681B7B002B06D02000FFF7E1
S11313607CFE00212868FFF76FF870BD2300AA33C4
S113137018780028E8D0012008701A70E4E710B546
S113138003685B68984710BDDC2370B500255B00DB
S1131390C150343BC250911C0433C1503231043328
S11313A0C15066320433C2502033C552B623FF33D2
S11313B0C554013BC554023BC554B423FF33C55443
S11313C00F3BC552AA23FF33C554013BC554023B0E
S11313D0C554A823FF330400C554142000F048FD6D
S11313E0C8210600FFF70EF8CC235B00E65014205A
S11313F000F03EFDC8210600FFF704F8CE235B0091
S1131400E650083BE5549623FF33E5540133E55495
S1131410200070BD70B505005C08002915D1D023EB
S1131420013C5B00C250A4B20433C4521431200006
S113143002F028FDAA23FF33E9542000142102F00E
S11314409BFCD4235B00E85470BDD623013C5B00B5
S1131450C250A4B20433C4521421200002F012FD7D
S1131460B623FF33E9542000142102F085FCDA236B
S1131470E8E70000F7B504000130FF300E00170064
S113148005F0E0F9002385B258005A1C28189BB2D5
S113149080B20192BB4208DA0130FF30F25C2018BE
S11314A0054905F0A5F9019BEEE72C232418FF3428
S11314B063700023A370F7BD4D860000012030B592
S11314C0094C8A18404291420CD00B781B065840B4
S11314D008234500C0172040013B6840002BF8D189
S11314E00131F0E730BDC046B71DC104C123F0B5DA
S11314F0162700258DB05B00C15A06AE09AB6F44B8
S113150000930395029601972C2303220400FFF70E
S11315108CFBA84267D03B88082B64DC102229008E
S113152009A805F02FFA3288070021002000FFF7F0
S1131530C5FF874257D1C1231A265B00E15A0395A0
S113154002956E4407AD573B01960095FF3B02227E
S11315502000FFF76AFB002845D03388042B42DCC7
S113156037490422280004F0DDFB011E3DD1661C2E
S1131570FF368022300004F0FFFBB621FF31615CAE
S1131580C2220291DA214900615CD4230191AA218B
S11315905200FF31615CA2585B00E35C01320091B0
S11315A03000284905F024F9300005F04BF92C22CD
S11315B085B26319FF33A11C5A70FF312A00200041
S11315C0FFF77CFF0235FF3502001F49601905F063
S11315D00FF9300005F036F9DC235B00020031001E
S11315E0E058FFF7CCFE0DB0F0BD042217492800E7
S11315F004F098FB002807D1CA2201235200A35407
S11316009622FF32A354EEE704221149280004F085
S113161089FB002804D1CB2301225B00E254E2E7DA
S113162004220C49280004F07DFB0028DBD1CA23E6
S11316305B00E0549623FF33E0540133E054D2E7D7
S113164020860000398600004986000025860000B7
S11316502A8600002F860000F8B5451CFF350400DB
S113166080220021280004F087FBD326D4237600AF
S11316705B00A25DE35C9A4230DAC4235B00E3586A
S11316803349D218280005F0B3F82822D021A35DED
S11316904900534361582000C918FFF7EBFE2800A6
S11316A005F0D0F8A11C421E0700FF312000FFF70F
S11316B005FF0200781CFF302649201805F098F831
S11316C0280005F0BFF8DC235B0002002900E05885
S11316D0FFF755FEA35D0133A355F8BD9A42FCD133
S11316E0C4235B00E3581A49D218280005F080F897
S11316F0AA232821FF33E25CA35D52004B437931D6
S1131700FF3161580232C9182000FFF7B3FE2800E8
S113171005F098F8A11C421E0700FF312000FFF7D6
S1131720CDFE0200781CFF300A49201805F060F84D
S1131730280005F087F8DC235B0002002900E0584C
S1131740FFF71DFE96220023FF32A355A354C4E7DE
S11317503486000049860000F8B5451CFF350400B6
S113176080220021280004F007FBD926DA23760022
S11317705B00A25DE35C9A4230DAC6235B00E35867
S11317803149D218280005F033F82822D621A35D68
S11317904900534361582000C918FFF76BFE280025
S11317A005F050F8A11C421E0700FF312000FFF78E
S11317B085FE0200781CFF302449201805F018F833
S11317C0280005F03FF8DC235B0002002900E05804
S11317D0FFF7D5FDA35D0133A355F8BD9A42FCD1B3
S11317E0C6235B00E3581849D218280005F000F816
S11317F0B6232821FF33E25CA35D52004B438531BD
S1131800FF3161580232C9182000FFF733FE280067
S113181005F018F8A11C421E0700FF312000FFF755
S11318204DFE0200781CFF300849201804F0E0FF48
S1131830280005F007F8DC235B0002002900E058CB
S1131840FFF79DFD0023C7E73486000049860000AA
S1131850CA2370B55B00C35C0400002B27D096211B
S1131860FF31425C002A23D0CC2595396D00FF3925
S11318704059FEF7E9FD63591B7B002B06D020007D
S1131880FFF7EAFE00216059FEF7DEFDCE256D006C
S113189001216059FEF7D8FD63591B7B002B06D04C
S11318A02000FFF759FF00216059FEF7CDFD70BD00
S11318B0CB235B00C05C0028E8D001206054E254D4
S11318C0E4E7C823F0B51A255B00C3588FB004932E
S11318D002AB0024ED18C1232C805B000591C15A92
S11318E06D3B02AAFF3B9B18029307AE0BAB009320
S11318F0039401962C2303220700FFF796F9A042D4
S113190050D03388082B4DDC102221000BA805F0A1
S113191039F802AB0600DA8A39003800FFF7CEFD49
S113192086423FD1C1235B00F95A08AB029303946A
S1131930019500942C2302223800FFF776F9A04287
S113194030D02B88502B2DDC059B049A9E1A14232F
S11319505E431A2302AA9B181B889B089C4221DA27
S113196009AD05220021280004F006FA02AB1B8B06
S1131970A200FB18995C9B185A7829706A709A78AF
S1131980DB78AA70002110222800EB7004F0FAFF23
S1131990D0225200A319BA585B0001340492985221
S11319A024B2D6E70FB0F0BDC12370B500255B00AB
S11319B0C15A713B88B0FF3B6B4405AE019303955C
S11319C0029500962C2301220400FFF72EF9A84269
S11319D016D029001022300004F0D4FFC2235B008B
S11319E0E3580500984202D12000FFF77FFDC82389
S11319F05B00E3589D4203D329002000FFF761FFF9
S1131A0008B070BDC02310B55B0004003E290AD1A4
S1131A1001220021C254FF3204F0AEF9C123002296
S1131A205B00E25210BD3C2904D10022C254FFF7EE
S1131A30BBFFF7E7C35C002BF4D0C1225200835AEA
S1131A40C15401338352EDE7037D002B04D1437568
S1131A50837583610133037570477FB5C36802AD35
S1131A6004000E0002916A608B4203D1028AAB88A3
S1131A709A4218D02000062229000C3004F061F9A3
S1131A80206800F01AFB6B79227AE17900932068D0
S1131A90002300F0ADFB20682979320000F0E2FA5F
S1131AA0206800F001FB7FBD70B518260400FFF725
S1131AB0CBFF3300082120790D4D4343EB185956D1
S1131AC001F038FF33000821A0794343EB1859563D
S1131AD001F030FF082160794643AD19695601F0E1
S1131AE029FF044B200006CBFFF7B7FF70BDC046AB
S1131AF0EC860000B80A002007B5437D00910192EE
S1131B00002B07D09A070AD5EFF3108253425341B2
S1131B10837572B60099019AFFF79FFF07BDDB0733
S1131B20F8D5038B014A9360F4E7C04600180040DF
S1131B30437D002B05D09A0704D5837D002B00D06C
S1131B4062B67047DB07FCD58369024A9BB2D36057
S1131B50F7E7C0460018004010B5006800F0B6FA78
S1131B6010BD00000B4B0C4A0C491A6000225A713C
S1131B701A710B4B196016211971023199710139CF
S1131B8059711639DA605A741A741A75D9711A723D
S1131B907047C046B80A002040420F00CC13002012
S1131BA09C0A002010B50021192001F04BFE0021F1
S1131BB01B2001F047FE0121262001F043FE0121F4
S1131BC0062001F03FFE0121152001F03BFE01211A
S1131BD0142001F037FE01210C2001F033FE012115
S1131BE0042001F02FFE0121122001F02BFE01211F
S1131BF00B2001F027FE0121242001F023FE012106
S1131C00082001F01FFE01211D2001F01BFE01210F
S1131C10082001F063FE00211D2001F05FFE012178
S1131C20092001F00FFE01211E2001F00BFE01210D
S1131C30092001F053FE00211E2001F04FFE012176
S1131C40032001F0FFFD01211F2001F0FBFD012114
S1131C50032001F043FE00211F2001F03FFE01217B
S1131C60272001F0EFFD01211A2001F0EBFD0121F5
S1131C70272001F033FE00211A2001F02FFE01215C
S1131C801C2001F0DFFD01211C2001F027FE10BD06
S1131C9010B5FFF787FFFEF719FB10BDF7B5214F0D
S1131CA03D00FE35AC8F002C12D11F4E01213000B7
S1131CB0FEF7CAFB337B002B09D00123210030003F
S1131CC0AB87FEF7C1FB1949194800F0FFF8F7BDCF
S1131CD0012C1FD12000FEF78FFA164EF870337BCB
S1131CE00193002B13D121003000FEF7ADFBFB78EC
S1131CF0002BECD010490E4800F0E8F803230199BA
S1131D003000AB87FEF7A0FBFEF78CFADFE7022377
S1131D10AB87DCE7022CDAD00023032CF8D1FEF7E2
S1131D2049FBD4E7C00A0020580C0020528600006A
S1131D30001300206C0C00206286000010B5FA210C
S1131D400548FEF75FFBFA210448FEF75BFBFA2126
S1131D500348FEF757FB10BD580C00206C0C002004
S1131D60440C002003BEFEE7034B10B51B68002B98
S1131D7000D0984710BDC046800C002070B50F49B4
S1131D800F4CA14204D100F057FA00F051F8FEE7DD
S1131D900C4D00238D42F6D0CA18E818A24205D390
S1131DA09042F0D0084B0949002204E00068043353
S1131DB01060F1E704C38B42FCD3E4E70000002089
S1131DC080020020A48E0000800200200C14002059
S1131DD010B500F02AF8002801D100F01BF810BD5E
S1131DE0014B18607047C046800C0020014B1868F6
S1131DF07047C046840C002070B5041E07D0044D03
S1131E002E6800F011F82B689B1B9C42F9D870BD1A
S1131E10840C002010B5034A13680133136000F0EA
S1131E206DF810BD840C0020704700207047704787
S1131E3010B501F05DFC03F027FFFFF7F8FF012068
S1131E40FFF7DAFF084C200000F0E2FE200000F06B
S1131E5057FFFFF71DFFFFF721FF044B002BFAD0BC
S1131E6000E000BFF7E7C046880C00200000000037
S1131E7010B503F031FF10BDF7B506000D000C00DE
S1131E808B180193019B671B9C4207D03368217810
S1131E901B683000984701340028F3D13800FEBD98
S1131EA070B505000C00081E07D004F0CBFC2B68AD
S1131EB002005B6821002800984770BD10B50249F4
S1131EC0FFF7EEFF10BDC0467186000070B5040038
S1131ED0FFF7E6FF05002000FFF7F0FF401970BD93
S1131EE0014B18607047C046040000200122024BD9
S1131EF052421A607047C04604000020164A10B5CA
S1131F001368591C27D0013B1360002B23D172B6F0
S1131F10124B134A0433934208D8BFF34F8F114A2C
S1131F20114BDA60BFF34F8FC046FDE70F4A012122
S1131F301000147D0C42FCD02021148BFF319B082F
S1131F405B0021431183D361094B13800123027D7C
S1131F501A42FCD0E1E710BD04000020000000009C
S1131F60030200000400FA0500ED00E00040004117
S1131F7002A5FFFF01607047F0B505AC2578046841
S1131F80981E471EB8412668920700063243024352
S1131F90072022600140AD01626829430020022B22
S1131FA000D05803114301436160F0BD10B5C02453
S1131FB00368A4031868120522400243C0200904E0
S1131FC080020140114319605A681043586010BDE3
S1131FD00122036819680A431A601A68D207FCD4FC
S1131FE0DA69D207F9D470470222036819680A43F0
S1131FF01A60DA699207FCD4704703681A7ED20724
S113200002D41A7E9207FCD57047002203685A83D3
S113201070470368187E4007C00F70470368187E36
S1132020C0097047802302685B42117E0B4313761C
S113203070470368187EC007C00F70470368188D87
S1132040C0B2704703681A7ED207FCD589B201205A
S113205019857047012203689A7570470122036845
S11320601A75704770B5012504684B082B40294048
S1132070206809075B070B430343236051000348AF
S113208001F07AFE0138C0B2207370BD006CDC022E
S11320900122036819680A431A601A68D207FCD43B
S11320A0DA69D207F9D470470222036819680A432F
S11320B01A60DA699207FCD470470368DA699207F8
S11320C0FCD402211A688A431A6070470268936A32
S11320D05B0A5B0219439162137E5B07FCD5906A2D
S11320E0C0B270470368214A30B5934211D0204AE8
S11320F093422FD01F4A93422FD01F4A93422FD08E
S11321001E4A93422FD01E4A934222D10E231922F3
S113211001E0092314220121032599401948C02410
S1132120016099082B40AB40FC359D40890009189B
S1132130A4000859A843C0259D402B0003430B511C
S11321408023DB011A43104B5A805A7852B2002A7A
S1132150FBDB30BD0A231522DDE70B231622DAE769
S11321600C231722D7E70D231822D4E700080042D6
S1132170000C00420010004200140042001800420B
S1132180001C004200E100E0000C0040F8B504002F
S113219016000F001D00FFF7A5FF2000FFF718FF32
S11321A01C22BB00134072072468120C13432360E3
S11321B08423A375012F18D11021012E00D00839D2
S11321C00A4B69431868C00001F0D6FD0722A389B1
S11321D00240DB045203DB0C1343A3810304A089F4
S11321E0DB0C400B40031843A081F8BD30000020F5
S11321F0F7B50700019308AB1E780D001400FFF734
S113220047FF3800FFF76EFFC022240592031440F5
S1132210B2070C2607211643019A34430A40C0260C
S113222011008022B6022D043B68354092022543FA
S11322300A431D605A60F7BD1E2270B546484749DF
S1132240436893431C3A1343436008238C69234334
S11322508B61434C434B9C829C8A14439C82DC6874
S11322601442FCD00124404A14701578254203D04E
S113227055786DB2002DF8DB01249460547864B273
S1132280002CFBDB394C5460547864B2002CFBDB2B
S11322908224E4015480547864B2002CFBDB0224D1
S11322A09C840E34DD682542FCD0314CDC62102461
S11322B0DD682542FCD09D8C2E4C2C439C8410243C
S11322C0DD682542FCD002249D8C80262C439C840E
S11322D04024DD683542FCD0DD682542F9D0102465
S11322E0DD682542FCD000249460547864B2002C4C
S11322F0FBDB214C5460547864B2002CFBDB1C6A79
S11323001E4D2C4080251C621C6AAC431C620323B6
S113231093601B4B536053785BB2002BFBDB0023B1
S1132320FF240B72174A4B728B72CB72164B1A60D6
S1132330164B174A1B6811689A065B01C90E2340A5
S1132340520F12020B431343124A1385802342682F
S11323501343436070BDC046004000410004004088
S11323600C06000000080040000C004001050100BC
S1132370B905FF7D040A000000070300FFFCFFFF0E
S113238003060100006CDC023000002024608000A1
S113239020608000004000420120704710B50368AF
S11323A0014A1B6A984710BD13040000826D436DF7
S11323B09A4203D0836DC018007D704701204042CB
S11323C0FBE710B504000069FFF702FE00232200BA
S11323D063659C32A365A0341360236010BDF020B4
S11323E001403039484248417047F0231B011940ED
S11323F0802306209B0099420AD00133FF33013029
S1132400994205D0802302385B00994200D0002015
S113241070470F2001400020012903D00239481ED3
S11324208141481C704700000300F0B5182685B0B0
S11324300391A43304001878330008214343334D37
S11324401700EB18595601F075FA2300A5331878D4
S1132450330008214343EB18595601F06BFA23006B
S1132460A7331B78022B0AD12300B8331878FF282E
S113247005D008214643AE19715601F05BFA2600D7
S1132480A8363078FF2819D0012101F0DBF9182291
S1132490210033781E485A43AB56AC31DB0118187F
S11324A008601C49AD185B1821000122B0310B6093
S11324B069688A402100B4310A601A600122039BD2
S11324C011002069FFF762FE39002000FFF78DFF3D
S11324D0390005002000FFF79CFF390006002000AA
S11324E0FFF77DFF33000090290020690122FFF7E8
S11324F043FD2300A6331A7859782069FFF756FD67
S11325002069FFF771FD05B0F0BDC046EC86000000
S1132510184400411444004110B540220021040035
S113252003F02AFC002320002364636410BD000030
S1132530F7B51D0008AB1B780400009309AB1B78AA
S11325401600019300234360FA239B0083600E4B23
S11325500F00083303601430FFF7DEFF20005C3007
S1132560FFF7DAFF6A4623001278A43327619A70D2
S11325706A4612791E70DA7022005D70FF23A83259
S1132580200013701374FEBD74860000036C406C4D
S1132590181A00D54030704710B5040020005C3094
S11325A0FFF7F4FF0028F9D12069FFF726FD10BDDD
S11325B010B51430FFF7EAFF10BD026C436C9A4269
S11325C004DB036C406CC01A3F307047436C006CF2
S11325D0181A0138F9E710B55C30FFF7EEFF10BDAB
S11325E070B504000069FFF714FD00281FD02069AE
S11325F0FFF724FD3F22636D01331340A26D934224
S113260003D0626DA218107563652300A8331B788C
S1132610FF2B0CD020001430FFF7CFFF092806DC75
S113262023002200AC33B4321B6812681A6020699C
S1132630FFF7FFFC002819D025005C352800FFF7C0
S1132640A5FF002821D022002300A0329C3311686A
S11326501B68994216D03F201368E95C1368013364
S113266003401360C9B22069FFF7ECFC2069FFF74F
S1132670D5FC002805D02069FFF7D4FC2069FFF7BA
S1132680C4FC70BD01214942ECE72069FFF7E6FC78
S1132690ECE70000F8B5040000690D00FFF7C9FC81
S11326A0002826D13F260127220021009C321368EE
S11326B0A03108680133334083422ED1EFF31083F5
S11326C03B420DD11D4B5B68DB05DB0DECD0103BB1
S11326D05BB2002B18DB9B08C033194A9B009B5844
S11326E02069FFF7A6FC0028DED02000FFF778FF62
S11326F0DAE720005C30FFF749FF0028D2D1290037
S11327002069FFF79FFC16E00F221340083B9B084B
S11327100C4A9B009B181B68E2E7136801331E40B8
S11327200B689E4204D0210013685C31CD541660BE
S11327302069FFF78FFC0120F8BDC04600ED00E0E2
S113274000E100E01CED00E0826D436D70B5040013
S11327509A421AD03F22836DC3181D7D836D0133C5
S1132760134083652300A8331B78FF2B0BD0200074
S11327701430FFF722FF0A2805DD2300B434B033F8
S11327801B6822681A60280070BD01256D42E9E7C4
S113279030B50F25CB1D013902002A401400000971
S11327A03034092A01DD373214001C70013B8B429E
S11327B0F2D130BD70B582291FD1C3B22C4D5A015C
S11327C0AA1891692B4C80010C40C0218905214332
S11327D09161294908330818802150612A685B01F6
S11327E0D01804794942214301717020995C8143D6
S11327F0080030210143995470BD0029FCD1C02444
S1132800C1B21B4E4B01F3189A681A4DA4052A4015
S113281022439A60194A800110180A0058603068EF
S1132820072608325201115CB1430E0001213143E5
S1132830115499690D402C439C6170240E495961CF
S1132840115CA1430C0010212143115499680C4CD4
S113285082180C4080214903214399609968890BAF
S113286089039960402351790B435371C4E7C046EF
S113287040110020FFFFFF8FB40C0020740E0020D5
S1132880FF3F00F070B50400012320CC00212A781A
S11328902000134380222B70520003F06DFAAB78B2
S11328A0DB07FCD46C6270BD1F22144B70B51B682F
S11328B0590B9C0C9B0111405B0F22401F2900D136
S11328C01A391F2A00D1023A072B00D1043B1F25D5
S11328D000688E01048D0A492A4021403143018554
S11328E0018D14000A00AA4322430285028D1903B4
S11328F0044B13400B43038570BDC0462460800025
S11329003FF8FFFFFF8FFFFFEFF310830360012306
S1132910436072B670470368002B02D162B6BFF3FE
S11329206F8F704737B5056904006846002D14D1D0
S1132930FFF7EAFF019B621D013B02D3D57FEDB295
S1132940FAE768460193FFF7E6FF002D01D1002066
S11329503EBD206AE369C01AFAE7FFF7D5FF2200FB
S11329600025019B3432013B02D31578EDB2FAE71E
S113297068460193FFF7CFFF002DE8D0206BE36A90
S1132980E9E70000F0B501254668037A31685A0189
S11329908C18FF34A77AB2183D43A572C468094D58
S11329A09068A40428402409204390609068083368
S11329B0800B8003906040225B01CB1819790A4395
S11329C01A71F0BDFF3F00F0F7B5036904000E0073
S11329D017006846002B3DD1FFF796FF019B611D50
S11329E0013B5A1C0CD0CD7F5A1EEDB2002D05D1EF
S11329F068460193FFF78FFF2800FEBD1300F0E740
S1132A00684601930025FFF786FFE369AF4202D0D1
S1132A10226A934257D3226A9342EDD10023E361A1
S1132A20013323616846FFF76FFF22000021019BF9
S1132A30671D013B3532581CDAD0F97710785E1ED9
S1132A40002805D0117020000193FFF79BFFECE7ED
S1132A503300F0E7FFF758FF2100019B3431013BBD
S1132A605A1C06D00D785A1EEDB2002DC0D01300AA
S1132A70F6E7684601930025FFF74DFFE36ABD4280
S1132A8002D0226B934226D3226B9342B4D100230B
S1132A906846E3622361FFF737FF27002200002125
S1132AA0019B3437013B3532581CA1D03970107862
S1132AB05E1E002805D0117020000193FFF762FF0D
S1132AC0EBE73300F0E75A1CE261A269D3181B78E4
S1132AD07355013599E75A1CE262A26AD3181B7830
S1132AE073550135CAE7F7B5027A4368110004004B
S1132AF00831186849014118C879C00727D501254C
S1132B005201CD719B189A6861699204920C002954
S1132B1021D12262226A002A3ED0A26A65616846F7
S1132B205A60FFF7F1FE27002100019B661D013B5F
S1132B30343735315A1C2BD0F5773A78581ED2B237
S1132B40002A05D0019368460D70FFF7E4FEF7BD37
S1132B500A700300EEE72263226B002A1CD00022D5
S1132B606261A26968465A60FFF7CEFE2600210022
S1132B70019B3436013B671D35315A1C08D0357032
S1132B80FA7F581ED2B2002ADCD10A700300F4E79F
S1132B9068460193FFF7BFFE2000FFF7F3FED6E778
S1132BA037B56B46DC1D00230D002000237001F0B7
S1132BB01BF82B681818286001F0BAF8210001F0FE
S1132BC073F82B681818286020783EBD03290ED1AD
S1132BD080220E4B62311B68FF31585C5242024323
S1132BE05A5468226339FF39FF32995470470129D6
S1132BF0FCD18022054B24311B68FF31585C5242C2
S1132C0002435A542339FF392822EDE740110020AA
S1132C1070B500252F4B012104001A201D7000F00F
S1132C2011FE01211A2000F059FE2B4B012119201D
S1132C301D7000F007FE0121192000F04FFE202333
S1132C40264A0F20D1690B43D361012224490B7812
S1132C5013430B70234B19788143197006211D7897
S1132C602943197020490D782A430A701A780240C2
S1132C701A70602219780A431A701C4B1C4A5A8035
S1132C805A78D209FCD11B48FFF7AAF81A4D28003C
S1132C90FFF7F8FD2800FFF707FE7F212B68C1200E
S1132CA01A7880000A401A70042219780A430C2109
S1132CB01A701A898A4311491A810A581202120A8F
S1132CC00A5080220A6019787E3A0A431A70012356
S1132CD0237070BDA90C0020A80C00200004004043
S1132CE0584400413C44004159440041000C004018
S1132CF006400000D13600004011002000E100E051
S1132D000078002810D00121084B1B681A898A43D7
S1132D101A810822198B0A431A830422198B0A4345
S1132D201A830022024B1A607047C04640110020EB
S1132D303811002010B50F4A93699B0B9B039361D4
S1132D4013680222FF331A729879823A02439A7105
S1132D501A7A9207FCD57F24074A2140937A080007
S1132D60A3431900802301439172917A5B420B4380
S1132D70937210BD401100200050004110B50B7932
S1132D800C00002B0CD1080000F03CFF002801D0FF
S1132D90012010BD094A93699B0B9B039361F7E7DC
S1132DA000F0C6FF210000F0B2FF0028F0D1034A72
S1132DB093699B0B9B039361EBE7C0464011002092
S1132DC0F7B50D00832A19D1CBB2324C5A01A2189F
S1132DD091693148AD010840C021890501439161E1
S1132DE02E4920684D197021083355615B011A5C26
S1132DF08A43110040220A431A54F7BD022A44D1DF
S1132E008B000193264B8A00D658002EF5D138202A
S1132E10FFF72EF8234B1F4F036080235B00C36032
S1132E20431D0662856006614661C6610400476011
S1132E30DE77C662066380202F331E7040005E700A
S1132E4002F04AFF0600A0618020400002F044FF27
S1132E50EDB26B01A062FB189A680F49072011407C
S1132E60C02292050A439A603A6808356D01A95C4C
S1132E708143080003210143A95420005E60FFF749
S1132E8081FD074B019AD450B7E711002800FFF7E2
S1132E9091FCB2E740110020FFFFFF8FB40C00202B
S1132EA08C0C0020B086000070B505000124064B90
S1132EB0A200D258002A05D021002800FFF780FF85
S1132EC00134F4E770BDC04608000020084B8A00B6
S1132ED0D05810B5002803D003689B68984710BDEC
S1132EE0C9B2044B4901591888688004800CF6E77C
S1132EF08C0C00204011002010B50C00FFF7E6FFF9
S1132F0000280CD0064BE4B21B68083464011C1979
S1132F10802362795B42134363710223E37110BD22
S1132F204011002070B5134BCCB2134A60018901E3
S1132F305918131859609968104D08340D408021B0
S1132F4089022943402599609968890B890399600E
S1132F5011686301CB181E7935431D719D796D0687
S1132F60FCD564010919CB79DB07FCD512189068EC
S1132F70C0B270BD740E002040110020FF3F00F06D
S1132F8070B5140040220B4B0D001B68FF335979B8
S1132F900A435A710021FFF7C5FFA04200D920005F
S1132FA000230549A34203D05A5CEA540133F9E7EC
S1132FB070BDC04640110020740E002010B5C9B287
S1132FC00B484901421893689B049B0C3F2B0BDD73
S1132FD09468403B9B04A40B9B0CA4032343936081
S1132FE041188868C0B210BD93689B0B9B03F6E739
S1132FF040110020F0B51C00304B85B01B68060062
S11330000D000192002B55D02D4F3978C9B20029FB
S113301002D1192000F062FC64233B70294BAA0002
S1133020D058002808D0036822005B6801999847AB
S11330300400200005B0F0BD29003000FFF746FF72
S1133040844204D929003000FFF740FF040029001E
S11330503000FFF7B3FF0121EBB21B4F03935B0179
S11330600293029A3B6801989B18FF335A7A0A43E9
S113307016495A72AB01C918220002F062FE002CF4
S1133080D7D029003000FFF721FF0028D1D14021FB
S1133090039B3A6808335B01D3181879014319710B
S11330A00121D9710121029BD318FF339A7A0A4373
S11330B09A72BEE701246442BBE7C046381100207F
S11330C0A80C00208C0C002040110020740E00205D
S11330D013B56B46DC1D22000123FFF78BFF01288B
S11330E001D1207816BD01204042FBE7F0B51E0057
S11330F03A4B85B01B680F000192002B3FD0802310
S1133100DB019E423BD8364C2178C9B2002902D15A
S11331101A2000F0E3FB64230025324A2370BB012C
S1133120D3180293002E2CD02F4B1B680393FF233C
S11331303B401C0000930834039B64011C19A379D1
S1133140DB0921D0294B2A49186800F015FE294BC8
S11331501721584300F010FE274BE279920713D44D
S1133160DA5D002A01D10138F7D20122DA55009B39
S11331705A011D4B9B189A69920B92039A6101257F
S11331806D42280005B0F0BD00221B4B3400DA5517
S11331903F2E00D93F2422000199029802F0D1FD6C
S11331A0009BA1045A01104B890C9B18029A2D19FB
S11331B05A619A69361B920B92030A439A61009BE7
S11331C0039A08335B01D3180222DA715979823ADF
S11331D00A435A71019B1B190193A3E7381100207C
S11331E0A90C0020B40C0020401100203000002065
S11331F040420F0070110100AB0C002070B50D00AF
S11332001C000D4EAB01F61811003000220002F034
S113321098FDEDB209496D014D196E61AB69084A1B
S113322020001340AB61AB69A2049B0B920C9B037F
S11332301343AB6170BDC046B40C002040110020A4
S1133240FF3F00F0F7B5104B01901B780F001500FD
S1133250002B0CD10D4B16001C78002C09D00C4E01
S11332600C4834880019641902F06BFD348028007E
S1133270FEBD002EFBD03A19330000210198FFF760
S1133280BDFF2418361AF4E734100020351100204D
S11332903611002035100020F8B5002000AF0E00D4
S11332A01500012A26DDD31D6A46DB08DB00D31A8C
S11332B09D46080003F0C6FA6C4603230021013042
S11332C04000207063705A1ED2B295420BDD3078F4
S11332D0002808D00136A0549D4203D0E1540233A3
S11332E0DBB2F0E72A0021000348FFF7ABFF431EDF
S11332F09841C0B2BD46F8BD880C0020F0B5002747
S1133300012687B01E4B009102A91E70050002978A
S1133310FFF746FC03AC019009223900200002F0BB
S11333202BFD09232370022363709E33E3715A3308
S11333302372029B6671093363806B461B79237188
S11333400F4B1F70009B092B07D11A002100280086
S1133350FFF778FF012007B0F0BD0A4B09221E7069
S1133360094E2100280002973780FFF76BFF02A95E
S11333702800FFF715FC034B32881F700349E6E76A
S113338034100020351100203611002035100020A3
S113339070B5CE7892B005000C00022E08D1C98811
S11333A02B48FFF7ABFF431E9841C0B212B070BD6B
S11333B000F0BEFC210000F08BFC002803D0C317F2
S11333C0181AC00FF2E7012E0BD1E2882149112A05
S11333D010DCD2B2002A0DD02800FFF733FF012001
S11333E0E4E7032EE2D1A378002B05D1E2881A4941
S11333F0032AEEDD0A78EFE7022B05D1A2791749FB
S11334002800FFF749FFD1E7012B02D1A279144923
S1133410F6E7032BCAD1134B01A91868FFF7B8F9D3
S1133420114B03A91868FFF7B3F9104B05A91868E5
S1133430FFF7AEF90E4B07A91868FFF7A9F900F0DA
S113344077FC09A900F054FCA27901A9D8E7C04689
S1133450880C0020DA860000CA860000BC860000C2
S1133460CE8600000CA0800040A0800044A0800014
S113347048A0800073B5060048780D000B2811D8C9
S113348000F070FC061D102E104348704C4F696C00
S1133490097801AA002907D1022311705170300064
S11334A0FFF7ACFE012076BD0023137053702E4B42
S11334B01B78012B00D1137002230021EFE78A78D7
S11334C00023012A04D101AA13705370274BEFE79C
S11334D0254A1370264A93699B0B9B039361E1E78A
S11334E08C78012C06D10021204B01AA1C7011708C
S11334F02300D4E7002C08D101201B4B1C4A187070
S113350093699B0B9B039361CDE7A9783000FFF788
S113351011FCC7E73000FFF73BFFC4E70123154A5E
S1133520CBE70B780020DB06BDD13000FFF7BCFCF5
S11335302A200221AA780F4BFF301A600C4A136824
S11335401C5C21434A241954FF34195D2938FF387F
S113355001431955D4E70123074AAEE78A78064B9D
S11335601A60B7E700209EE7AA0C0020B20C0020E6
S113357040110020381100203C1100204C4BF7B5BD
S11335801C780700002C00D07DE04A4E33689B8BEA
S11335901B070ED521002000FFF70CF93268102319
S11335A01100FF31887A03438B72434B1C6008235C
S11335B0938333689A8B52071FD504229A833F4A18
S11335C01378002B0AD01378013BDBB21370137805
S11335D0002B03D101211A2000F080F9384A137816
S11335E0002B0AD01378013BDBB213701378002B45
S11335F003D10121192000F071F93368FF331A7ADD
S1133600D20620D510221A72597930320A435A71DF
S113361060232C4938000A781A4235D1FFF72AFF73
S1133620002834D0802233685242FF3399790A4308
S11336309A713368FF331A7A520604D540221A72FB
S1133640597A0A435A72336800251C8C01239C431F
S1133650E4B20193E9B2002C15D023002B41019A66
S113366013420DD02B00326808335B01D318DA798A
S1133670D20713D4DB799B0710D4019BAB409C4346
S11336800135092DE6D1F7BDFFF778FBC8E7202205
S11336900D4BCDE703681B689847EEE70B4BAA0078
S11336A0D0580028F6D13800FFF790FAE5E7C04675
S11336B0351100204011002038110020A90C0020F1
S11336C0A80C0020740E0020FF5000418C0C002038
S11336D010B50248FFF752FF10BDC046880C002009
S11336E0014A024B1A60704700500041401100200B
S11336F0FA21314B10B51868890000F03DFB2F4BBF
S11337000138984257D82E492E4A4860C020136A7F
S113371000061B021B0A03431362002407238C6068
S11337200B608021136A09061B021B0A0B431362F8
S1133730FC22254B196A0A431A62FC22196A920177
S11337400A431A62A022196AD2020A431A622000AA
S11337500021013400F076F8142CF8D11B4B1C0026
S11337605A7852B2002AFBDB194A5A80194B1A00C4
S1133770597EC9090129FBD0E421C90099803F2160
S1133780D970537EDB09012BFBD0C0235B0113618D
S113379000230320937000F023F863785BB2002BBE
S11337A0FBDB0D4B0D4A6380D379DB09012BFBD086
S11337B04123537010BDFEE730000020FFFFFF00DF
S11337C010E000E000ED00E000040040000C0040C8
S11337D01E4000000040004221400000004800421A
S11337E0164A00B51300517EC9090129FBD00138DE
S11337F0042816D81969124A0A400F211A615A7806
S11338008A4300F0AFFA0308060B030011000122FB
S11338100A435A7000BD11000322F9E71100022285
S1133820F6E7F02311691B050B430F21136153784D
S11338308B43190002230B435370EBE70040004213
S1133840FFFFFFF0182330B51D0004004543082096
S1133850204A55192856013014D0032912D80800DB
S11338606343D156D31800F07DFA02280E1B586822
S1133870CB010221184A9B181A18403211700122F8
S113388082405A6030BD5868CB010621124A9B1809
S11338901A1840321170012282405A609A61F1E78D
S11338A05868CB0106210C4A9B181A184032117033
S11338B0012282405A605A61E4E75868CB01022130
S11338C0054A9B181A1840321170012282409A60EE
S11338D0D8E7C046EC860000004400411823F0B548
S11338E008245843114A13181C5701341BD00126CD
S11338F035005F688356BD400D4ADB019A18906815
S113390028420BD10C00601E8441D2194032107839
S113391034400336A400B04320431070044A9B187B
S1133920002901D15D61F0BD9D61FCE7EC860000DA
S113393000440041F8B50300182058432A4A1018DF
S1133940007A40B20400013013D0481C00240C2833
S11339500FD800F007FA451C1C1C1C1C1C1C1C075F
S113396007070700092906D100211800FFF76AFF9D
S113397000242000F8BD0A2901D10839F5E7002404
S11339800B29F6D10A391800FFF75CFFF1E718207C
S11339904343D018466801253400D2561348D20157
S11339A012187308D31830332C401878002C0BD01D
S11339B00F24090120400143C9B292191970403201
S11339C013781D431570D3E70F27B84301439219A9
S11339D0C9B21970130040331A7815431D70C8E733
S11339E001246442C5E7C046EC860000004400415F
S11339F010B50400006802F079F9200010BD10B57C
S1133A0004000068002801D002F070F9002323604C
S1133A10A360636010BD70B504000D00006801313F
S1133A2002F0CAFE031E01D0012028C470BD036841
S1133A3010B50400002B04D043688B4201D301204D
S1133A4010BD2000FFF7E7FF0028F9D0A368002B82
S1133A50F5D122681370F2E770B50E00110004006E
S1133A601500FFF7E4FF002804D12000FFF7C7FF8B
S1133A70200070BDA5603100206802F0DBFEF7E78E
S1133A80002370B504000D00036043608360994215
S1133A9007D0080002F0D6FE290002002000FFF73C
S1133AA0DBFF200070BD000010B50248FEF798FD52
S1133AB010BDC0460013002010B50248FEF790FD6B
S1133AC010BDC04644120020F7B501240326154F4B
S1133AD015493800FEF74EFA14491548FEF74AFA1C
S1133AE014491548FEF746FA14491548FEF742FAF8
S1133AF014491548FEF73EFA144D15492800FEF7FF
S1133B0039FA390000962300019400221148FEF787
S1133B100FFD0096290001941E231F220E48FEF774
S1133B2007FDF7BDBC13002000080042000C004252
S1133B30C013002000100042C413002000140042EF
S1133B40C813002000180042CC130020D01300201A
S1133B50001C004200130020441200203F20704744
S1133B6013B56B460268D9710733546819000122F2
S1133B70A04716BD10B502210069FFF7A7F910BDD3
S1133B8010B503210069FFF7B7F910BD10B5130094
S1133B9004000A0000690321FFF7A8FA002801D1F4
S1133BA00123636010BD000010B5054C23685A1C46
S1133BB004D103685B69984703002060180010BDB6
S1133BC084000020074B0200186810B5411C03D084
S1133BD0012252421A6010BD02211069FFF778FADF
S1133BE0F9E7C0468400002010B50378422202336E
S1133BF0037002490248FFF725FB10BD4000002076
S1133C00880C002010B50178030042780020A12917
S1133C1008D1212A05D11A3A16491748FFF712FB91
S1133C20012010BD2129FCD1202A11D1193A1149B2
S1133C301148FFF7A5F996220E4BD200196891425C
S1133C4003D10124D87904400ED0FEF74FF90EE0D9
S1133C50222A03D19A78074BDA71ECE7232AE0D1C0
S1133C605A88064B1A60DCE7FA20FEF739F900207F
S1133C70D7E7C04638000020880C0020340000201C
S1133C80FA220021054B92009A60054A59600832D5
S1133C901A60044A19761A617047C046D41300208A
S1133CA03C8B0000880C002070B50E000025446891
S1133CB0002C0BD0236831005B6820009847002853
S1133CC002DB2D18E468F3E701256D42280070BD7E
S1133CD070B50D004468002C08D0236829009B6847
S1133CE020009847002802D1E468F4E7200070BD62
S1133CF070B50D004468002C07D02368290020000B
S1133D00DB689847E4682D18F5E72C7070BD70B532
S1133D100D004468002C08D0236829001B6820008B
S1133D209847002802D1E468F4E7200070BD000041
S1133D300121064A10B5136805480B4005D1022439
S1133D400470241944704360116010BDF013002006
S1133D50F41300200B0010B50100180001F086FFD9
S1133D6010BD000002B4714649084900095C4900CD
S1133D708E4402BC7047C046002243088B4274D371
S1133D8003098B425FD3030A8B4244D3030B8B4258
S1133D9028D3030C8B420DD3FF22090212BA030C61
S1133DA08B4202D31212090265D0030B8B4219D342
S1133DB000E0090AC30B8B4201D3CB03C01A524162
S1133DC0830B8B4201D38B03C01A5241430B8B42AA
S1133DD001D34B03C01A5241030B8B4201D30B0393
S1133DE0C01A5241C30A8B4201D3CB02C01A5241BA
S1133DF0830A8B4201D38B02C01A5241430A8B427D
S1133E0001D34B02C01A5241030A8B4201D30B0265
S1133E10C01A5241CDD2C3098B4201D3CB01C01A7F
S1133E20524183098B4201D38B01C01A5241430989
S1133E308B4201D34B01C01A524103098B4201D377
S1133E400B01C01A5241C3088B4201D3CB00C01AE4
S1133E50524183088B4201D38B00C01A524143085C
S1133E608B4201D34B00C01A5241411A00D2014681
S1133E70524110467047FFE701B5002000F0F0F80A
S1133E8002BDC0460029F7D076E7704703460B43CE
S1133E907FD4002243088B4274D303098B425FD33F
S1133EA0030A8B4244D3030B8B4228D3030C8B426B
S1133EB00DD3FF22090212BA030C8B4202D3121251
S1133EC0090265D0030B8B4219D300E0090AC30B26
S1133ED08B4201D3CB03C01A5241830B8B4201D3D3
S1133EE08B03C01A5241430B8B4201D34B03C01ABC
S1133EF05241030B8B4201D30B03C01A5241C30A34
S1133F008B4201D3CB02C01A5241830A8B4201D3A4
S1133F108B02C01A5241430A8B4201D34B02C01A8E
S1133F205241030A8B4201D30B02C01A5241CDD233
S1133F30C3098B4201D3CB01C01A524183098B427E
S1133F4001D38B01C01A524143098B4201D34B0167
S1133F50C01A524103098B4201D30B01C01A5241CA
S1133F60C3088B4201D3CB00C01A524183088B4251
S1133F7001D38B00C01A524143088B4201D34B003A
S1133F80C01A5241411A00D20146524110467047AC
S1133F905DE0CA0F00D04942031000D340425340B1
S1133FA000229C4603098B422DD3030A8B4212D371
S1133FB0FC22890112BA030A8B420CD389019211A3
S1133FC08B4208D3890192118B4204D389013AD0E0
S1133FD0921100E08909C3098B4201D3CB01C01AB5
S1133FE0524183098B4201D38B01C01A52414309C8
S1133FF08B4201D34B01C01A524103098B4201D3B6
S11340000B01C01A5241C3088B4201D3CB00C01A22
S1134010524183088B4201D38B00C01A5241D9D23A
S113402043088B4201D34B00C01A5241411A00D2BB
S11340300146634652415B10104601D34042002BB7
S113404000D54942704763465B1000D3404201B536
S1134050002000F005F802BD0029F8D016E77047EB
S11340607047C0468446101C62468C46191C634641
S113407000E0C0461FB500F015FF002801D4002160
S1134080C8421FBD10B500F06FFE4042013010BDA4
S113409010B500F007FF002801DB002010BD01204F
S11340A010BDC04610B500F0FDFE002801DD002063
S11340B010BD012010BDC04610B500F08FFE0028D1
S11340C001DC002010BD012010BDC04610B500F079
S11340D085FE002801DA002010BD012010BDC04675
S11340E0F8B54546DE4657464E460C03E0B54E004D
S11340F0C90F88460D00610A440F0C43C700190319
S11341005800DB0F9B464B0A510F0B43760D400DB5
S11341101900D200D84500D1AEE0351A002D00DCDC
S1134120F6E000280FD1134300D1DBE06B1E002B17
S113413000D037E1BA1A9742BF41641A7F42E41BA8
S11341400126170024E0C64B9E424DD080231B0459
S11341501943382D00DD07E11F2D00DD38E1202053
S1134160431B9A460B005046834099461300484629
S1134170EB401843030050468240501E8241E94000
S11341801A43BA1A611A9742A441170064420C1BDD
S1134190230262D56402650A002D00D1DFE0280005
S11341A001F046FD0300083B1F2B00DDD2E0202276
S11341B03C00D21A9D40D4409F4025439E4200DDDE
S11341C0C4E09E1B731C1F2B00DDF1E0202238008D
S11341D02900D21AD840914097402C000143781E00
S11341E08741DC4000260F437B0709D00F233B4067
S11341F0042B05D03B1DBB42BF417F42E4191F0085
S113420023022CD5964B01369E4200D19AE04546B6
S1134210944BFF081C406007760564020743240B97
S1134220760D00212403230B0C0D8F4A24051C4317
S11342301440330523435B00ED075B082B43380030
S113424019003CBC90469946A246AB46F8BD64466C
S1134250044300D111E2040067467B07C6D14546FA
S11342606007FF080743E4087D4B9E4230D02403D7
S11342707605240B760DD4E7331A9A46002B78DDA5
S1134280002831D076488642AED080200004014315
S11342905346382B00DCE9E00A43511E8A410021D1
S11342A0D219BA42BF4109197C4217000C192302E2
S11342B0D3D56B4B01369E4200D13AE10120694BC4
S11342C01C407B0807401F43E007074364088BE753
S11342D023003B4300D1CBE1802212031443240387
S11342E0240B9EE72E007FE70800104300D1B4E0C2
S11342F0581E002800D0DEE0BA18BA429B41641868
S11343005B42E418170001262302A6D50226D5E74E
S1134310002D6ED1701C4005400D012800DCF9E031
S1134320B81A844687428041E51A40422D1A280271
S113433000D489E0D71BBA4292411C1B5242A51AF1
S1134340D84629E74546002400276AE7454CF61A73
S11343502C4049E73D002838854000272EE73800E7
S113436001F066FC20301DE70A43511E8A410021FA
S113437007E7002B00D0F3E0701C43055B0D012B15
S113438000DCADE0364B984200D1D1E0BA18BA4215
S1134390BF4164187F42E419E707520817436408D1
S11343A0060021E72E48854200D193E01D00D0E6A7
S11343B029001F3EF140202B00D18DE04022D31A6A
S11343C09D402F437D1EAF4100240F43002644E748
S11343D02B000800203BD8400300202D00D17DE0B5
S11343E04020451BA9400A43511E8A4100211A431B
S11343F0C7E6002E50D01A4EB04257D080266B42EA
S11344009946360434434B46382B00DDD6E01F2B47
S113441000DD35E12026F51A2600AE40B2463E0006
S1134420DE40AC46350056462E436546AF407D1E01
S1134430AF41DC403743D71BBA4292410C1B524276
S1134440A41A0600D846A3E6644667462C4300D067
S1134450A2E600250026002706E71E00C4E6C046A3
S1134460FF070000FFFF7FFFFFFF0F801F2B63DCB0
S11344702020C31A080098409C46834653461000E7
S1134480D84003005846184363469A40531E9A4145
S113449053460243D94003E726003E4306D0EB438C
S11344A09946002BC7D0944EB042ACD10C001700F3
S11344B00600D84698E6904B9A450BD08246E7E62C
S11344C0002800D09EE01800104300D1E9E01C0051
S11344D01700D846884E87E6002572E7002182E758
S11344E023003B43002E00D0ABE0002B00D1E7E0DB
S11344F00B00134300D177E6BA18BA42BF416418DF
S11345007F42E419230200D4F2E07C4B17001C40E4
S1134510060069E620003843002ED1D100285BD183
S11345201C00144300D1A8E01C001700D8465BE629
S113453006000024002797E650460B002038C340AD
S113454099465346202B00D195E0402350461B1A30
S113455099400A43511E8A414B4600211A439FE663
S1134560002E30D126003E4367D0DB439A46002B11
S11345701CD0614EB04260D05346382B00DD96E02B
S11345801F2B00DD9FE02026F31A26009E409C4648
S1134590B34653463E00DE4033005E461E43634648
S11345A09F407B1E9F415346DC403743BF189742D0
S11345B0924164185242A418060078E627437C1EF0
S11345C0A741002437E74C4EB04236D080265B42E8
S11345D036049A463443CFE71800104300D103E66B
S11345E0B81A84466745AD41E01A6D42401B050286
S11345F000D42CE6D71BBA4292411C1B5242A41A87
S1134600D846F1E51800104300D163E7F8086707BE
S113461007438020E4080003044208D0DD08054273
S113462005D1D208590711430F002C00D8467B0F3F
S1134630E4001C43FF00304ED6E50C0017000600D2
S1134640D2E5002B38D00B00134300D142E7F80821
S1134650670707438020E40800030442E7D0CB083F
S11346600342E4D1D208490711430F001C00DEE7DE
S113467000270024D5E500216BE700250027F3E59A
S11346804E462500203EF5404B462E00202B2DD0D3
S11346904025ED1AAC4027437C1EA7410024374334
S11346A0C9E6802400252403134E0027DCE52743B4
S11346B07C1EA741002479E70C0017000E4E93E5F9
S11346C00C00170090E556462300203EF34099461F
S11346D05346202B0ED0402356469B1B9C40274319
S11346E07C1EA7414B4600241F435FE70024D2E70A
S11346F01700B2E50024F2E7FF070000FFFF7FFF89
S1134700F0B557464546DE464E46E0B54C000E032E
S113471087B0834692461D008046360B640DCF0F4A
S1134720002C4FD06F4B9C4235D08023420F1B048A
S1134730F600134333439946C30098466A4B002658
S11347409C460023644403932B031B0B9B466B0082
S1134750ED0F50465B0D01955ED0624A934253D0F3
S11347605A46D1008022400F120402430A43934662
S11347705246D1005C4A94460022634438006840A3
S113478084460290E41A16430F2E00D9B4E0574B26
S1134790B6009B599F460300334399466CD10023CE
S11347A09846023308260393CEE7CB464146039A44
S11347B00197022A65D1019B4A4C9C4600230022A2
S11347C098466BE00300334399464ED0002E00D147
S11347D0BCE1300001F02CFA03000B3B1C2B00DD84
S11347E0ACE11D22D31A5A460100DA4008398E4042
S11347F01300334399465B468B40984600233C4C58
S11348000026241A03939FE751465A46114329D19F
S1134810002293460232B1E7594601431ED05B465B
S1134820002B00D19EE1584601F002FA03000B3B35
S11348301C2B00DD8FE102005946083A91408B465B
S11348401D21CB1A5146D9400B0059460B43514602
S11348509B469140264B00221B1A8FE7002301221E
S11348609B468BE75146032288E700239846013391
S113487004260024039367E70323B14603930C261D
S113488062E7032A00D15CE2019B012A00D0E4E143
S113489013409C4600230024002298460021120362
S11348A0130B0A0D12051A432305124C40462240ED
S11348B0134362465B00D2075B081343190007B039
S11348C03CBC90469946A246AB46F0BD00238022EC
S11348D09C4612039846034CE0E70023014C002257
S11348E09846DBE7FF07000001FCFFFF608B000038
S11348F00DFCFFFFFFFF0F80D94500D939E100D13E
S113490034E1002346464D469A46013C5B460A0E76
S11349101B021A430B02170C039313041B0C3900DC
S1134920280090460193FFF727FA0200019B834673
S11349305A43280039009146FFF7A4FA350C0904BC
S11349400D43A9450DD95B464544013BA84500D913
S11349503AE1A94500D837E102235B429C4645442D
S1134960E3444B46EB1A390018000493FFF704FAAA
S1134970019B05004343390004989946FFF782FAE6
S1134980330409041B0C0B43994509D943446A1E9B
S1134990984500D91AE1994500D817E1023D4344EE
S11349A04A469B1A5A4612042A4303999346100C0A
S11349B00A0C914609045A46090C4E460D0012048D
S11349C0120C4543059151437243704352190E0C26
S11349D0B218954203D980256D02AC466044150C8B
S11349E009041204090C28185218834200D2CEE09C
S11349F000D1C8E01D1A53469E1AB2459241524254
S1134A00AB1A9A46984500D117E139001800FFF710
S1134A10B3F9019B05004343390050460493FFF763
S1134A2031FA04980B04310C1943884209D94144E2
S1134A306B1E884500D907E1884200D804E1023D95
S1134A404144049BCB1A180039000493FFF794F9EE
S1134A50019B82464343390004980193FFF712FAFD
S1134A6001980B043104090C194388420DD95346AB
S1134A704144013B884500D9E8E0884200D8E5E09C
S1134A8002235B429C464144E244019B2D04CE1A1E
S1134A9051462943059D4F462A000B04080C1B0C64
S1134AA05A4345437B4378435B19170CFB189D42DB
S1134AB003D980256D02AC4660441D0C12041B040E
S1134AC0120C28189B18864200D293E000D18EE085
S1134AD001231943A04BE318002B00DC99E04A079B
S1134AE000D09EE05A46D20106D55A469B4B1A4046
S1134AF080239346DB00E318994A934268DD01233F
S1134B00029A984C1A400023944698460022C5E61F
S1134B1080224B46120313420AD05B46134206D14D
S1134B201A431203120BAC4688468E4CB6E64B462B
S1134B301A431203120BBC468A4CAFE603005A46D2
S1134B40283B9A4000239146984657E6584601F080
S1134B506FF8203040E603005246283B9A4000217B
S1134B60934677E601F064F820305FE6884500D28A
S1134B70C7E64B46DE075D0843465B081E434346D3
S1134B80DB079A46C2E60025924500D333E7039E2D
S1134B905946B446E244B245AD416D424544EB1832
S1134BA00139984507D2984200D97FE000D1BCE092
S1134BB01D1A8B461FE79845FAD1039D5545F2D936
S1134BC043468B461D1A16E79B46CAE61500E7E6E0
S1134BD05A46C90852070A435B0590465C0D5A467B
S1134BE00123029952021940120B8C4656E6002BFF
S1134BF000D16FE746444A1EB04529D911008642C8
S1134C0000D065E7039A934200D061E762E701218F
S1134C1049420120C21A382A21DD029B03409C46E6
S1134C2038E60F220A40042A00D15BE70A00111D6E
S1134C30914292415242934454E7474BE318002B6C
S1134C40E5DD01225242F2E71D00FAE69A461CE72E
S1134C50B04239D86ED011003AE702933AE71F2ADE
S1134C603CDC20239B1A0C005846994098404B1E6C
S1134C7099415B46D440D340204308431A0043077C
S1134C8009D00F230340042B05D00100081D8842DE
S1134C909B415B42D21813023AD50123029A0124A4
S1134CA01A400023944698460022F7E5022149421F
S1134CB08C46039DE344AC46E244AA45AD416D42B3
S1134CC04544ED182D1A96E68A1E03994D008D422F
S1134CD0894149424144761803958FE71F20404299
S1134CE0C31A5846D8400300202A28D040205D46E5
S1134CF0821A954029434A1E9141194307230022F1
S1134D000B4009D00F2300220B400800042BBDD117
S1134D10010053075202120BC908194301238846A4
S1134D200299002419408C46B8E55245BED88B46FA
S1134D30002560E6039D9D42C6D3110062E700256D
S1134D40D8E780225B4612031A43019B1203120B1D
S1134D509C468846034CA1E5FF030000FFFFFFFECD
S1134D60FE070000FF070000F0B54F464646D64652
S1134D705C00C0B51F03DB0F9A46174B0E034D00B2
S1134D8084468046360B6D0DC90F91463F0B640D6A
S1134D9001209D4208D09C4201D0A5420BD01CBCEE
S1134DA090469946A246F0BD63463343F7D1AC42E0
S1134DB0F5D13A43F3D10120BE42F0D1C845EED13A
S1134DC0514507D0002DEAD163461E433000461EEC
S1134DD0B041E4E70020E2E7FF070000F0B54546F4
S1134DE0DE4657464E46E0B51F033D0B2C4F0E03DF
S1134DF04C00AB465D008446360B640DC90F9046EB
S1134E006D0DDB0FBC422AD0254FBD422DD0002CA6
S1134E100FD130430700814678427841C0B2002D5B
S1134E2017D15F463A4314D14B460020002B0AD0D9
S1134E3006E0002D02D15846024301D0994218D011
S1134E404842012108433CBC90469946A246AB46E1
S1134E50F0BD0028F2D00120013B1843F3E73700EE
S1134E600743D1D002204042EDE75F461743CED03E
S1134E70F8E7AC42E4DC03DA481E01210843E2E728
S1134E805E45DDD806D000205E45DCD20123481EF5
S1134E901843D8E7C445D3D80020C445F6D3D2E795
S1134EA0FF070000F0B54E464546DE4657465C0017
S1134EB0E0B51F03DB0F99462A4B0E034D00C90FC3
S1134EC08446360B6D0D8B4690463F0B640D9D4218
S1134ED020D0244B9C4222D0002D12D13043434297
S1134EE04341DBB2002C1FD0002B0CD04B460120D9
S1134EF0013B034318003CBC90469946A246AB468E
S1134F00F0BD002C16D0CB4517D05B465942012387
S1134F100B43EFE7310002230143EBD1D9E739001A
S1134F2002231143E6D1D7E73A43DDD10023002819
S1134F30E0D0EAE73A43E6D1E7E7A542E5DC05DB62
S1134F40BE42E2D807D00023BE42D3D25946012341
S1134F5001390B43CEE7C445D7D80023C445F5D364
S1134F60C8E7C046FF070000F0B557464546DE4691
S1134F704E46E0B50C0398464E00230B87B007005D
S1134F8092469B46760DCD0F002E6BD06D4B9E4204
S1134F9035D080245B46420F2404DB0014431C43B9
S1134FA0C3009946684BA3469C46002300276644E9
S1134FB0029343461C035A00DB0F5046240B520D48
S1134FC0984600D176E05F4B9A426DD08023410F22
S1134FD01B040B435C49E4008C461C43C3000020C3
S1134FE062444146B6186940721C019194460743D5
S1134FF00F2F00D9B0E0554ABF00D25997465B46FF
S11350000343994600D087E000239B4602330827D8
S11350100293CEE742460192022867D0032800D1CA
S11350200EE2012800D062E1002300240022994608
S113503001990140CDB2002112030B0D120B1B0587
S11350401343434A240513401C436400ED076408DA
S11350502C434846210007B03CBC90469946A246E2
S1135060AB46F0BD034399464FD05B46002B00D1BD
S113507089E1584600F0DCFD03000B3B1C2B00DDEE
S11350807AE11D22D31A3A0001005C46DA4008395D
S11350908C4013008F4023439B46B94600232D4E7A
S11350A00027361A029384E7534623432AD1002467
S11350B0022096E75346234320D0002C00D157E129
S11350C0200000F0B5FD03000B3B1C2B00DD49E183
S11350D01D21CB1A51460200D9405346083A944048
S11350E093400C431B4A121A00207AE70125019BC6
S11350F0144C1D400023002299469CE70024002202
S113510001206EE7534603206BE700239B460133DF
S11351100427002602934CE7032381460C270293BD
S113512047E780220023002512039946054C82E7B5
S11351305C464B4602986FE75C464B4601950298E5
S11351406AE7C046FF07000001FCFFFFA08B0000D8
S1135150FFFF0F800DFCFFFF4A464946170C1A0C4F
S11351601B041B0C08041900000C4143150088465D
S113517019007D4379430395894629001500454369
S11351804D44029545462D0CAA46029D5544A94519
S113519006D98A46802149028946CA445146039168
S11351A0290C0491414609042D04090C8846290060
S11351B0250C24044144240C0591210041438846D4
S11351C0210079438A466843414650448146080C8D
S11351D048446F43824503D98021490289464F449C
S11351E0010C894639004944029141460F0404994F
S11351F03F0C88460004C019804441460491594636
S11352000F0C0904090C884659438A463900514356
S1135210894641464A435146090C8B467B43D21882
S11352205A44934203D980235B029B46D944514696
S11352300904090C8A46414661437C43130C120459
S11352404B445244A1468A463C0041466C434D437C
S113525051464D440F0C7D19A94503D980214902BB
S113526088464444049F0399B84641448B46834589
S1135270804141428846514608042F04000C3F18DF
S11352805846029910188946904292414F44BA46B2
S1135290524299469346C244D144CB448F42BF41C3
S11352A0C245894199459B41934592417F42494278
S11352B02D0C52420F435B4213437F19FF185B4688
S11352C03C19DB0D059A64021C43430213435D1E23
S11352D0AB415A46C00D034352021343E20156D573
S11352E001205A0803401343E207134364085A4851
S11352F0604400284DDD5A0709D00F221A40042AC1
S113530005D01A1D9A429B415B42E4181300E20146
S113531004D58020514AC00014406044504A904251
S113532000DDE3E60125DB0862071A436402019B02
S11353309146220B4405640D1D407CE680225946AB
S11353401203114208D0144206D122431203120B55
S113535045469946434C6EE65B461A431203120BCC
S1135360404C68E603005446283B9C400023B9E6C1
S113537000F05EFC2030A6E60300283B9F4000239B
S1135380BB4699468AE600F053FC203074E6B446E6
S1135390ADE701252A1A382A06DD019B00241D40A9
S11353A000230022994646E61F2A21DC20252000FE
S11353B0AD1A1E00AB40A840D6405D1EAB41304341
S11353C01843D440430709D00F230340042B05D0CE
S11353D00300181D98429B415B42E418230221D527
S11353E00125019B01241D4000230022994622E649
S11353F01F2521006D42281AC1400800202A1DD013
S11354005F35AA1A944023435C1EA3410725034336
S11354101D400022002D09D00F2200241A4018003C
S1135420042AD6D1030065076402220BDB082B4350
S113543001259946019B00241D40FCE50024E2E778
S1135440802201251203224301991203120B0D40FD
S11354509946044CEFE5C046FF030000FFFFFFFE42
S1135460FE070000FF070000F0B54646D6464F464B
S11354700C03C0B5CD0F4E00610A440F0C43C100AC
S11354805800400D84468A460F001903500F490AFC
S11354900143C648760DA846DB0FD200844500D1EF
S11354A0D8E001204340AB4200D1A6E06046351A63
S11354B0002D00DC05E1002810D10B00134300D1BE
S11354C0D7E06B1E002B00D04BE153469F1ABA4520
S11354D08041641A4042241A01261EE0B34B9E42C6
S11354E048D080231B041943382D00DD19E11F2DFA
S11354F000DD4CE120230F005B1B10009A409F400D
S1135500E840531E9A41E940074317435346DF1BC3
S1135510611ABA45A44164420C1B230200D4C5E0BD
S11355206402650A002D00D1F6E0280000F080FB3B
S11355300300083B1F2B00DDE9E020223C00D21AC7
S11355409D40D4409F4025439E4200DDDBE09E1BEE
S1135550731C1F2B00DD0AE120223800D21A290017
S113556097402C009140D8407A1E9741DC40002699
S113557001430F437B0709D00F233B40042B05D085
S11355803B1DBB42BF417F42E4191F00230225D5C6
S1135590864B01369E4200D1AFE0854B01251C406D
S11355A043466207FF08640276051743240B760D11
S11355B01D4000212403230B0C0D7E4A24051C43AB
S11355C01440330523435B00ED075B082B4338008D
S11355D019001CBC90469946A246F0BD01254346DD
S11355E06207FF081743E4081D40704B9E4236D003
S11355F024037605240B760DDBE76346F31A002BB0
S113560000DC94E06046002835D068488642B1D07A
S113561080273F043943382B00DCFDE00A431700A0
S113562000217A1E97415744574580410919444245
S11356300C1923023AD55D4B01369E4200D14BE151
S113564001225B4B1C407B0817401F43E2071743B2
S113565064088FE70800104300D024E721E7230003
S11356603B4300D1B9E18022120314432403240BE9
S11356709FE72E007EE70800104300D1CAE0581EC1
S11356808446002800D0E7E0524452458041641823
S11356904042241817000126230207D50226CFE72B
S11356A064462C4300D1B3E12C0067467B0700D04D
S11356B062E76307FF081F4301254346E4081D40D2
S11356C093E7002D78D1751C6D056D0D012D00DC5F
S11356D0F2E05046801A8245BF41651A7F42ED1BB5
S11356E08446280200D48CE05046171ABA429241EC
S11356F00C1B5542651B984614E7012543460024BC
S11357001D40002755E72A4CF61A2C4032E73D008D
S113571028388540002717E7380000F089FA203040
S113572006E70A43170000217A1E9741EEE6002B94
S113573000D0E5E0731C9C465B055B0D012B00DC8F
S11357409FE01A4B9C4500D1C5E05244524580412C
S1135750641840422418E707520817436408664651
S113576008E71248854200D185E01D00BCE6290007
S11357701F3EF140202B00D17FE04022D31A9D40F0
S11357802F437D1EAF4100240F4300268EE72B00DC
S11357900F00203BDF40202D71D040235D1BA9402A
S11357A00A43511E8A4100211743AFE6FF07000058
S11357B0FFFF7FFFFFFF0F80002E3ED0B34EB445A6
S11357C045D0802636046D423443382D00DDA8E0F0
S11357D01F2D00DD1FE1202627005046761BB74011
S11357E0E84007435046B040461EB041EC403843C1
S11357F0171ABA4292410C1B5242A41A66469846A2
S11358008BE6644667462C4300D08BE600250026D1
S11358100027EAE61E00ADE61F2B60DC2027F81AFD
S11358200F00844687401000D840074360468240FA
S1135830501E8241D9401743F5E6260050460643E0
S113584005D0ED43002DD3D0904EB445BDD10C000E
S11358501700664698468DE68C4883420BD0634613
S1135860D9E6002D00D096E00800104300D1E2E014
S11358700C0017009846854E7CE6002580E7002141
S11358808EE7230050460343002E00D0A8E0002BEF
S113589000D1DEE00B00134300D16BE652445245C5
S11358A080416418404224181700230200D4FDE606
S11358B0774B66461C405DE6250050460543002EA6
S11358C0CFD1002D4FD10C00144300D1A0E00C0027
S11358D0170098464EE666460024002785E61F001A
S11358E00800203FF8400700202B00D18EE0402024
S11358F0C31A99400A43511E8A410021174392E674
S1135900002E14D126005046064362D0DB43002B00
S11359105CD187189742924164185242A418664693
S113592087E650462043441EA041002460E7574EBA
S1135930B4454ED0802636045B423443382B00DD18
S11359407FE01F2B00DD8BE0202627005046F61A4F
S1135950B740D84007435046B040461EB0410743C5
S1135960DC40BF18D6E70D00154300D102E65046CF
S1135970801A8245BF41651A7F42ED1B8446280286
S113598000D48DE65046171ABA4292410C1B52427B
S1135990A41A9846EEE50D00154300D16BE7504676
S11359A06707C00807438020E4080003044207D0C7
S11359B0CD08054204D12C009846D70849070F4367
S11359C07B0FE4001C43FF00304ED3E52F4EB4455B
S11359D0B4D10C0017006646CCE500270024E8E5A6
S11359E0002B39D00B00134300D144E7C0086707EC
S11359F007438020E40800030442E1D0CB080342BB
S1135A00DED1D70849070F431C00D9E7002171E70D
S1135A1000250027E9E52E002700203EF740202D31
S1135A202FD04026751BAC4050462043441EA04155
S1135A3000243843DCE6802400252403134E002789
S1135A40D3E5504620430700781E87410024BF1841
S1135A5060E70C0017008DE50C0017000B4E89E57C
S1135A601E002700203EF740202B0CD04026F31ABE
S1135A709C4050462043441EA04107430024BF18C5
S1135A8048E70024D0E70024F3E7C046FF070000FE
S1135A90FFFF7FFF70B50E4E0D031C0349005B0032
S1135AA02D0B490D240B5B0DB14204D00849002095
S1135AB08B4208D070BD05430120002DFAD1044962
S1135AC000208B42F6D114432000441EA041F1E78C
S1135AD0FF07000030B5134D0A034B00120B5B0D9A
S1135AE0C90F0024AB4210DD0F4CA3420FDC80240D
S1135AF00E4D64032243ED1A1F2D0BDD0C48C31A0F
S1135B00DA405442002900D11400200030BD094B72
S1135B10CC18FAE7084CE840A44663449A40024390
S1135B20EFE7C046FE0300001D040000330400003C
S1135B3013040000FFFFFF7FEDFBFFFF70B500289B
S1135B4030D0C317C4185C40C50F200000F070F8B3
S1135B50174B184A1B1AD21A1F2A18DD164AD21AD2
S1135B609440002224035B05240B5B0D00211000EC
S1135B7024030A0D240B12052243104C1B0522405A
S1135B8013435B00ED075B082B43190070BD210034
S1135B9091400A000B21081AC4405B052403240B1E
S1135BA05B0DE3E70025002300240022DEE7C04666
S1135BB01E0400003304000013040000FFFF0F80E4
S1135BC010B5041E28D000F033F8154B154A1B1AE3
S1135BD0D21A1F2A15DD144AD21A94400022240333
S1135BE05B05240B5B0D0021100024030A0D240B1C
S1135BF0120522430D4C1B05224013435B00590838
S1135C0010BD210091400A000B21081AC4405B0515
S1135C102403240B5B0DE6E7002300240022E2E7C3
S1135C201E0400003304000013040000FFFF0F8073
S1135C301C2101231B04984201D3000C10391B0AB8
S1135C40984201D3000A08391B09984201D300097C
S1135C50043902A2105C40187047C04604030202D3
S1135C6001010101000000000000000070B5054CB6
S1135C7005001300201E04D00A000220290000E0C1
S1135C8000BF70BD0000000070B500260C4D0D4C27
S1135C90641BA410A64209D1002602F0ABF90A4DF8
S1135CA00A4C641BA410A64205D170BDB300EB5886
S1135CB098470136EEE7B300EB5898470136F2E710
S1135CC058020020580200205802002078020020C8
S1135CD0EC3000687047000010B5034B01001868F1
S1135CE000F09CF810BDC0468800002010B5034B9E
